:100000000C9446000C9465000C9465000C946500FB
:100010000C9465000C9465000C9465000C946500CC
:100020000C9465000C9465000C9465000C946500BC
:100030000C9465000C9465000C9465000C946500AC
:100040000C9465000C9465000C9465000C9465009C
:100050000C9465000C9465000C9465000C9465008C
:100060000C9465000C9465000C9465000C9465007C
:100070000C9465000C9465000C9465000C9465006C
:100080000C9465000C9465000C94650011241FBE4F
:10009000CFEFD0E4DEBFCDBF11E0A0E0B1E0E4ECF3
:1000A000F2E000E00BBF02C007900D92AE30B10746
:1000B000D9F711E0AEE0B1E001C01D92A031B10767
:1000C000E1F70E9443010C9460010C940000CF936F
:1000D000DF9300D01F92CDB7DEB789837B836A831D
:1000E00089818A3031F48A819B81BC018DE00E9434
:1000F000670080EC90E0FC018081882F90E08072A6
:1001000099270097B1F386EC90E02981FC012083C8
:1001100080E090E00F900F900F90DF91CF910895C5
:10012000CF93DF93CDB7DEB780910E0190910F0191
:1001300082309105A1F18330910530F4009769F088
:100140008130910589F07CC08330910509F442C06B
:100150008430910509F459C073C081E090E0909318
:100160000F0180930E016CC080E290E0FC01808161
:10017000882339F481E090E090930F0180930E0181
:100180000DC080E290E0FC018081813039F482E092
:1001900090E090930F0180930E0152C051C080E215
:1001A00090E0FC018081813039F482E090E090930E
:1001B0000F0180930E010DC080E290E0FC01808170
:1001C000882339F483E090E090930F0180930E012F
:1001D00037C036C080E290E0FC018081882339F48A
:1001E00083E090E090930F0180930E010DC080E2B8
:1001F00090E0FC018081813039F484E090E09093BC
:100200000F0180930E011CC01BC080E290E0FC0136
:100210008081813039F484E090E090930F018093E5
:100220000E010DC080E290E0FC018081882339F44A
:1002300081E090E090930F0180930E0100C00000D8
:1002400080910E0190910F018230910569F0843008
:10025000910581F08130910509F012C085E290E0AE
:1002600021E0FC0120830CC085E290E022E0FC014B
:10027000208306C085E290E021E0FC01208300009D
:10028000DF91CF910895CF93DF93CDB7DEB781E2B1
:1002900090E0FC01108282E290E02FEFFC012083CD
:1002A00084E290E02FEFFC01208385E290E0FC01E6
:1002B000108210920F0110920E010E949000FDCF4B
:0402C000F894FFCFE0
:0E02C4000000000200000000670000000000C3
:00000001FF
