:100000000C9455000C9474000C9474000C947400BF
:100010000C9474000C9474000C9474000C94740090
:100020000C9474000C9474000C9474000C94740080
:100030000C9474000C9474000C9474000C94740070
:100040000C9474000C9474000C9474000C94740060
:100050000C9474000C9474000C9474000C94740050
:100060000C9474000C9474000C9474000C94740040
:100070000C9474000C9474000C9474000C94740030
:100080000C9474000C9474000C947400B900C000BB
:10009000F500100171018C01CB01E60103020F0292
:1000A00016021D0224022D02340211241FBECFEFBE
:1000B000D0E4DEBFCDBF11E0A0E0B1E0E0E2F5E0CA
:1000C00000E00BBF02C007900D92AE30B107D9F728
:1000D00011E0AEE0B1E001C01D92A731B107E1F738
:1000E0000E9456020C948E020C940000CF93DF9372
:1000F00000D01F92CDB7DEB789837B836A83898165
:100100008A3031F48A819B81BC018DE00E947600A7
:1001100080EC90E0FC018081882F90E0807299272C
:100120000097B1F386EC90E02981FC01208380E008
:1001300090E00F900F900F90DF91CF910895CF93A3
:10014000DF93CDB7DEB78091150190911601CC01F8
:10015000A0E0B0E040E050E027E030E0841B950BE9
:100160002817390708F439C18A5B9F4FFC010C94AA
:10017000850281E090E090931601809315012EC1D5
:1001800080E290E0FC018081882339F481E090E0F6
:10019000909316018093150127C080E290E0FC0146
:1001A0008081813039F482E090E090931601809351
:1001B00015011AC080E290E0FC018081823039F4A0
:1001C00083E090E090931601809315010DC080E2CA
:1001D00090E0FC018081843039F484E090E09093D9
:1001E000160180931501FAC0F9C080E290E0FC018D
:1001F0008081882339F485E090E090931601809304
:1002000015010DC080E290E0FC018081813039F45D
:1002100082E090E09093160180931501DFC0DEC06C
:1002200080E290E0FC0180818823D1F480910E016E
:10023000282F30E080911101882F90E0280F391F7E
:1002400080911201882F90E0820F931F86309105D4
:1002500039F486E090E0909316018093150140C038
:1002600080E290E0FC0180818823D1F480910E012E
:10027000282F30E080911101882F90E0280F391F3E
:1002800080911201882F90E0820F931F8630910594
:1002900039F085E090E0909316018093150120C01D
:1002A00080E290E0FC0180818230D1F480910E01E7
:1002B000282F30E080911101882F90E0280F391FFE
:1002C00080911201882F90E0820F931F8630910554
:1002D00039F083E090E090931601809315017EC081
:1002E0007DC080E290E0FC018081882339F485E0C4
:1002F00090E090931601809315010DC080E290E08C
:10030000FC018081843039F484E090E09093160100
:100310008093150163C062C080910F01823038F074
:1003200081E090E0909316018093150133C080E244
:1003300090E0FC018081813059F480910F0182307E
:1003400038F482E090E0909316018093150122C06A
:1003500080E290E0FC018081823059F480910F01AD
:10036000823038F483E090E0909316018093150179
:1003700011C080E290E0FC018081843059F48091CA
:100380000F01823038F484E090E09093160180935E
:10039000150124C023C080E290E0FC0180818038F8
:1003A00039F487E090E090931601809315010DC019
:1003B00080E290E0FC018081882339F486E090E0BF
:1003C000909316018093150109C008C087E090E062
:1003D000909316018093150101C0000080911501D2
:1003E00090911601CC01A0E0B0E041E050E026E0A1
:1003F00030E0841B950B28173907E0F1825B9F4F93
:10040000FC010C94850281E08093140110920F018D
:1004100010920E0110921101109212012CC082E074
:100420008093140181E080930E0125C083E08093C6
:10043000140182E0809311011EC084E080931401B6
:1004400084E08093120117C085E0809314018091AD
:100450000F018F5F80930F010EC086E0809314011F
:1004600081E08093130107C087E08093140110920C
:10047000130101C0000085E290E020911301FC010E
:10048000208388E290E020911401FC0120838BE21C
:1004900090E030910E0120911101320F2091120154
:1004A000230FFC012083DF91CF910895CF93DF9339
:1004B000CDB7DEB781E290E0FC01108282E290E0ED
:1004C0002FEFFC01208384E290E02FEFFC012083DA
:1004D00085E290E0FC01108287E290E02FEFFC01C2
:1004E000208388E290E0FC0110828AE290E02FEF06
:1004F000FC0120838BE290E0FC0110821092160137
:10050000109215010E949F00FDCFEE0FFF1F0024E7
:10051000001C0BBE0790F691E02D0994F894FFCFD4
:0E052000000000020000000076000000000055
:00000001FF
