:100000000C9446000C9465000C9465000C946500FB
:100010000C9465000C9465000C9465000C946500CC
:100020000C9465000C9465000C9465000C946500BC
:100030000C9465000C9465000C9465000C946500AC
:100040000C9465000C9465000C9465000C9465009C
:100050000C9465000C9465000C9465000C9465008C
:100060000C9465000C9465000C9465000C9465007C
:100070000C9465000C9465000C9465000C9465006C
:100080000C9465000C9465000C94650011241FBE4F
:10009000CFEFD0E4DEBFCDBF11E0A0E0B1E0E2EBF6
:1000A000F3E000E00BBF02C007900D92AE30B10745
:1000B000D9F711E0AEE0B1E001C01D92A331B10764
:1000C000E1F70E94BA010C94D7010C940000CF9381
:1000D000DF9300D01F92CDB7DEB789837B836A831D
:1000E00089818A3031F48A819B81BC018DE00E9434
:1000F000670080EC90E0FC018081882F90E08072A6
:1001000099270097B1F386EC90E02981FC012083C8
:1001100080E090E00F900F900F90DF91CF910895C5
:10012000CF93DF93CDB7DEB780911101909112018B
:100130008230910509F452C08330910530F4009764
:1001400089F081309105A9F0ADC08430910509F4A2
:100150007BC08430910508F45CC08530910509F4BA
:100160009AC0A0C081E090E09093120180931101A9
:1001700099C080E290E0FC018081882339F481E01D
:1001800090E0909312018093110127C080E290E0EB
:10019000FC018081813039F482E090E0909312017B
:1001A000809311011AC080E290E0FC0180818230CE
:1001B00039F483E090E090931201809311010DC017
:1001C00080E290E0FC018081833039F484E090E0AB
:1001D000909312018093110165C064C080E290E0A9
:1001E000FC018081813039F482E090E0909312012B
:1001F000809311010DC080E290E0FC018081882392
:1002000039F485E090E090931201809311014AC087
:1002100049C080E290E0FC018081823039F483E0C3
:1002200090E090931201809311010DC080E290E064
:10023000FC018081882339F485E090E090931201DD
:10024000809311012FC02EC080E290E0FC018081DC
:10025000833039F484E090E090931201809311018F
:1002600019C080E290E0FC018081882361F080E287
:1002700090E0FC018081813031F080E290E0FC016F
:100280008081823039F485E090E090931201809370
:10029000110108C007C081E090E0909312018093A3
:1002A000110100008091110190911201833091059C
:1002B000A1F18430910538F48130910561F08230EC
:1002C0009105B9F04EC084309105D9F18530910582
:1002D00009F444C046C080911001882349F487E0A6
:1002E00080930E01809110018F5F8093100139C0BF
:1002F00038C080910F01882379F480910E018930F4
:1003000058F480910E018F5F80930E0180910F0150
:100310008F5F80930F0125C024C080910F01882337
:1003200079F480910E01882359F080910E0181505B
:1003300080930E0180910F018F5F80930F0111C098
:1003400010C080910F01882341F410920E0180911A
:100350000F018F5F80930F0104C003C010920F0143
:10036000000088E290E020910E01FC012083DF91E3
:10037000CF910895CF93DF93CDB7DEB781E290E0C0
:10038000FC01108282E290E02FEFFC01208387E2E3
:1003900090E02FEFFC01208388E290E0FC011082C6
:1003A00010921201109211010E949000FDCFF8945A
:0203B000FFCF7D
:0E03B2000000000200000000670000000000D4
:00000001FF
