:100000000C9455000C9474000C9474000C947400BF
:100010000C9474000C9474000C9474000C94740090
:100020000C9474000C9474000C9474000C94740080
:100030000C9474000C9474000C9474000C94740070
:100040000C9474000C9474000C9474000C94740060
:100050000C9474000C9474000C9474000C94740050
:100060000C9474000C9474000C9474000C94740040
:100070000C9474000C9474000C9474000C94740030
:100080000C9474000C9474000C947400B900C000BB
:10009000F500FC0003010A0152016D018B01910181
:1000A0009A01B001C601CA01D10111241FBECFEFD0
:1000B000D0E4DEBFCDBF11E0A0E0B1E0E0E3F4E0CA
:1000C00000E00BBF02C007900D92AE30B107D9F728
:1000D00011E0AEE0B1E001C01D92A531B107E1F73A
:1000E0000E94E7010C9416020C940000CF93DF935A
:1000F00000D01F92CDB7DEB789837B836A83898165
:100100008A3031F48A819B81BC018DE00E947600A7
:1001100080EC90E0FC018081882F90E0807299272C
:100120000097B1F386EC90E02981FC01208380E008
:1001300090E00F900F900F90DF91CF910895CF93A3
:10014000DF93CDB7DEB78091130190911401CC01FC
:10015000A0E0B0E040E050E027E030E0841B950BE9
:100160002817390708F4C0C08A5B9F4FFC010C9424
:100170000D0281E090E09093140180931301B5C0CB
:1001800080E290E0FC018081882339F481E090E0F6
:10019000909314018093130127C080E290E0FC014A
:1001A0008081813039F482E090E090931401809353
:1001B00013011AC080E290E0FC018081823039F4A2
:1001C00083E090E090931401809313010DC080E2CE
:1001D00090E0FC018081843039F484E090E09093D9
:1001E00014018093130181C080C085E090E090935A
:1001F00014018093130179C085E090E0909314017D
:100200008093130172C085E090E090931401809375
:1002100013016BC080910E01843089F4809110012C
:10022000823069F480E290E0FC018081882339F417
:1002300086E090E0909314018093130132C0809186
:100240000F01823038F081E090E0909314018093A8
:10025000130127C080E290E0FC018081813039F4F5
:1002600082E090E090931401809313011AC080E221
:1002700090E0FC018081823039F483E090E090933B
:100280001401809313010DC080E290E0FC01808195
:10029000843039F484E090E090931401809313014A
:1002A00024C023C080E290E0FC018081803839F4D2
:1002B00087E090E090931401809313010DC080E2D9
:1002C00090E0FC018081882339F486E090E09093EF
:1002D00014018093130109C008C087E090E0909357
:1002E00014018093130101C00000809113019091CB
:1002F0001401CC01A0E0B0E041E050E026E030E0A5
:10030000841B950B2817390708F451C0825B9F4F57
:10031000FC010C940D0281E08093120110920F01F8
:1003200047C082E08093120180910F018F5F80931C
:100330000F013EC083E08093120180910F01813054
:1003400049F482E08093100180910F018F5F8093C8
:100350000F012EC080910F018F5F80930F0128C085
:1003600084E08093120180910F01882349F484E096
:1003700080930E0180910F018F5F80930F0118C051
:1003800080910F018F5F80930F0112C085E08093F1
:1003900012010EC086E08093120181E0809311016A
:1003A00007C087E0809312011092110101C0000084
:1003B00085E290E020911101FC01208388E290E029
:1003C00020911201FC012083DF91CF910895CF93FA
:1003D000DF93CDB7DEB781E290E0FC01108282E2CC
:1003E00090E02FEFFC01208384E290E02FEFFC01EE
:1003F000208385E290E0FC01108287E290E02FEFFD
:10040000FC01208388E290E0FC011082109214012C
:10041000109213010E949F00FDCFEE0FFF1F0024DA
:10042000001C0BBE0790F691E02D0994F894FFCFC5
:0E043000000000020000000076000000000046
:00000001FF
